S00B00004C43442E7372656346
S11300000C942A000C943F000C943F000C943F0085
S11300100C943F000C943F000C943F000C943F0060
S11300200C943F000C943F000C943F000C943F0050
S11300300C943F000C943F000C943F000C943F0040
S11300400C943F000C943F000C943F000C943F0030
S11300500C943F0011241FBECFE5D8E0DEBFCDBF16
S113006010E0A0E6B0E0E8E5F3E002C005900D92F0
S1130070A636B107D9F70E9446010C94AA010C9444
S1130080000085BB9BB39B7F9BBBEFECF7E03197F4
S1130090F1F700C0000092B3906492BB92B39F7BCF
S11300A092BBEFE9FFE03197F1F700C000008295C1
S11300B0807F85BB8FEC97E00197F1F700C00000CB
S11300C082B3806482BB82B38F7B82BBEFE9FFE0A3
S11300D03197F1F700C00000089585BB9BB394608D
S11300E09BBBEFECF7E03197F1F700C0000092B34F
S11300F0906492BB92B39F7B92BBEFE9FFE0319790
S1130100F1F700C000008295807F85BB8FEC97E0FB
S11301100197F1F700C0000082B3806482BB82B310
S11301208F7B82BBEFE9FFE03197F1F700C000005D
S11301300895EF92FF920F931F93CF93DF937C0167
S1130140FC0101900020E9F731978F01081B190B7E
S1130150C0E0D0E007C0F701EC0FFD1F80810E94D2
S11301606D002196C017D107B4F3DF91CF911F9191
S11301700F91FF90EF900895811107C0603128F42A
S1130180862F80680E9441000895813031F46031E7
S113019020F4862F806C0E9441000895CF93DF9352
S11301A0EC01862F642F0E94BC00CE010E949900AE
S11301B0DF91CF9108950F931F93CF93DF93CDB722
S11301C0DEB7C456D1090FB6F894DEBF0FBECDBF5B
S11301D0162F042F4AE050E0BE016F5F7F4F0E944C
S11301E06A01402F612FCE0101960E94CE00CC59A6
S11301F0DF4F0FB6F894DEBF0FBECDBFDF91CF91B6
S11302001F910F9108958FEF0E9441008FE39CE9A5
S11302100197F1F700C0000083E30E9441008FE1E1
S11302209EE40197F1F700C0000082E30E944100C0
S11302308FEC97E00197F1F700C0000088E20E947C
S113024041008FE19EE40197F1F700C0000081E0D6
S11302500E9441009FEF21EE84E0915020408040B5
S1130260E1F700C000008CE00E9441008FE19EE4B1
S11302700197F1F700C0000086E00E9441008FE181
S11302809EE40197F1F700C0000008958AB38460EA
S11302908ABB8BB38B7F8BBB81B3806481BB82B3FE
S11302A08F7B82BB84B38FEF84BB85B315BA0E9466
S11302B0030143E060E080E690E00E94CE0066E047
S11302C081E00E94BC0042E061E083E090E00E9493
S11302D0DB00FFCF4532510520F4423010F00C947E
S11302E07501FB011082CB010895BB274A3031F41C
S11302F0992322F4BDE2909581959F4F0C9481013E
S1130300BB27FB015527AA27880F991FAA1FA417EB
S113031010F0A41B83955051B9F7A05DAA3308F0DF
S1130320A95DA193009779F7B111B1931192CB0113
S11303300C949A01DC01FC01672F71917723E1F79A
S1130340329704C07C916D9370836291AE17BF079E
S10B0350C8F30895F894FFCFEF
S109035848656C6C6F00A7
S9030000FC
