S00F00004D4350343732352E7372656363
S11300000C942A000C9434000C9434000C943400A6
S11300100C9434000C9434000C9434000C9434008C
S11300200C9434000C9434000C9434000C9434007C
S11300300C9434000C9434000C9434000C9434006C
S11300400C9434000C9434000C9434000C9434005C
S11300500C94340011241FBECFE5D8E0DEBFCDBF21
S11300600E94B7000C94D8020C94000094EA96BF46
S113007006B607FEFDCF91B1987F983011F090310C
S1130080A9F783B994E896BF06B607FEFDCF91B1F0
S1130090987F903211F0983531F494E996BF06B602
S11300A004FCFDCFE3CF089584E986BF06B604FCC3
S11300B0FDCF089583B984E886BF06B607FEFDCF59
S11300C081B1887F883211F081E0089580E008953D
S11300D0CF93C62F80540E94360082E40E945A00B7
S11300E0CC2331F080E00E945A0080E00E945A0044
S11300F00E945400CF910895CF93DF93C62FD72F3A
S113010080540E9436008D2F0E945A008C2F0E942A
S11301105A000E945400DF91CF910895CF92DF924C
S1130120EF92FF920F931F93CF93C82FCB01BA0185
S11301306801790120E030E040E855E40E946B0258
S1130140A70196010E9455010E94C701611580E133
S1130150780710F06FEF7FE08C2F0E947C00CF9126
S11301601F910F91FF90EF90DF90CF90089560E082
S113017080E60E946800C12CD12C760119C003E3EB
S113018013E323E530E4B701A60180E60E948E0064
S11301908FE19EE40197F1F700C000002AE037EDFB
S11301A043E25CE3C701B6010E94E4006B017C01F9
S11301B020E030E040E450E4C701B6010E94500161
S11301C01816ECF6D8CF5058BB27AA270E94FB007C
S11301D00C9431020E94230238F00E942A0220F07B
S11301E039F49F3F19F426F40C9420020EF4E095A0
S11301F0E7FB0C941A02E92F0E94420258F3BA1743
S1130200620773078407950720F079F4A6F50C9428
S113021064020EF4E0950B2EBA2FA02D0B01B90148
S113022090010C01CA01A0011124FF27591B99F068
S1130230593F50F4503E68F11A16F040A22F232F74
S1130240342F4427585FF3CF469537952795A795C4
S1130250F0405395C9F77EF41F16BA0B620B730B6B
S1130260840BBAF09150A1F0FF0FBB1F661F771FDC
S1130270881FC2F70EC0BA0F621F731F841F48F491
S1130280879577956795B795F7959E3F08F0B0CF1A
S11302909395880F08F09927EE0F97958795089501
S11302A00E94F60108F481E008950E9469010C940B
S11302B031020E942A0258F00E94230240F029F4DD
S11302C05F3F29F00C941A0251110C9465020C94AE
S11302D020020E94420268F39923B1F3552391F35B
S11302E0951B550BBB27AA2762177307840738F0A1
S11302F09F5F5F4F220F331F441FAA1FA9F335D0FE
S11303000E2E3AF0E0E832D091505040E695001CB1
S1130310CAF72BD0FE2F29D0660F771F881FBB1F6B
S1130320261737074807AB07B0E809F0BB0B802D49
S1130330BF01FF2793585F4F3AF09E3F510578F075
S11303400C941A020C9465025F3FE4F3983ED4F3D4
S1130350869577956795B795F7959F5FC9F7880F49
S1130360911D9695879597F90895E1E0660F771F9B
S1130370881FBB1F621773078407BA0720F0621B2C
S1130380730B840BBA0BEE1F88F7E09508950E9457
S11303904A0288F09F5798F0B92F9927B751B0F0C7
S11303A0E1F0660F771F881F991F1AF0BA95C9F7F5
S11303B014C0B13091F00E946402B1E008950C942D
S11303C06402672F782F8827B85F39F0B93FCCF3E0
S11303D0869577956795B395D9F73EF49095809572
S11303E0709561957F4F8F4F9F4F0895990F000827
S11303F0550FAA0BE0E8FEEF16161706E807F907F3
S1130400C0F012161306E407F50798F0621B730B8D
S1130410840B950B39F40A2661F0232B242B252B0E
S113042021F408950A2609F4A140A6958FEF811DB1
S1130430811D089597F99F6780E870E060E0089552
S11304409FEF80EC089500240A94161617061806E8
S11304500906089500240A941216130614060506C4
S11304600895092E0394000C11F4882352F0BB0F55
S113047040F4BF2B11F460FF04C06F5F7F4F8F4FB8
S11304809F4F089557FD9058440F551F59F05F3FF3
S113049071F04795880F97FB991F61F09F3F79F0A2
S11304A087950895121613061406551FF2CF469524
S11304B0F1DF08C0161617061806991FF1CF8695A6
S11304C07105610508940895E894BB27662777278A
S11304D0CB0197F908950E947E020C9431020E9488
S11304E0230238F00E942A0220F0952311F00C9484
S11304F01A020C94200211240C9465020E944202F8
S113050070F3959FC1F3950F50E0551F629FF00162
S1130510729FBB27F00DB11D639FAA27F00DB11D7B
S1130520AA1F649F6627B00DA11D661F829F222704
S1130530B00DA11D621F739FB00DA11D621F839F8B
S1130540A00D611D221F749F3327A00D611D231F61
S1130550849F600D211D822F762F6A2F11249F57AF
S113056050409AF0F1F088234AF0EE0FFF1FBB1FB2
S1130570661F771F881F91505040A9F79E3F510571
S113058080F00C941A020C9465025F3FE4F3983EE9
S1130590D4F3869577956795B795F795E7959F5F1B
S11305A0C1F7FE2B880F911D9695879597F90895AD
S10705B0F894FFCFE9
S9030000FC
