:100000000C942A000C9434000C9434000C943400AA
:100010000C9434000C9434000C9434000C94340090
:100020000C9434000C9434000C9434000C94340080
:100030000C9434000C9434000C9434000C94340070
:100040000C9434000C9434000C9434000C94340060
:100050000C94340011241FBECFE5D8E0DEBFCDBF25
:100060000E9442000C945F000C94000082E882BF62
:1000700083B7816083BF08B600FEFDCF13BE81E069
:1000800088BF089581E08ABB1BBA8BB381608BBBAC
:10009000C0E0D0E003C00E9436002196CC3281E05F
:1000A000D807CCF38BB31BBAC0E0D0E003C00E94EA
:1000B00036002196CC3281E0D807CCF3E6CFF89415
:0200C000FFCF70
:00000001FF
