:100000000C946B000C9480000C9480000C94800085
:100010000C9480000C9480000C9480000C94800060
:100020000C9480000C9480000C9480000C94800050
:100030000C9480000C9480000C9480000C94800040
:100040000C9480000C9480000C9480000C94800030
:100050000C94800007634236B79BD8A71A396856BC
:1000600018AEBAAB558C1D3CB7CC5763BD6DEDFDDA
:10007000753EF6177231BF000000803F0800000097
:10008000BE922449123EABAAAA2ABECDCCCC4C3E8D
:1000900000000080BEABAAAAAA3E00000000BF007C
:1000A0000000803F0000000000084178D3BB438778
:1000B000D1133D190E3CC3BD4282AD2B3E68EC828C
:1000C00076BED98FE1A93E4C80EFFFBE01C4FF7F11
:1000D0003F000000000011241FBECFE5D8E0DEBFC6
:1000E000CDBF10E0A0E6B0E0E8E7FBE002C005907D
:1000F0000D92A636B107D9F70E94B7010C94BA0544
:100100000C9400006150710920E030E00EC0DC0169
:10011000A20FB31F4C91FC01E60FF71F50815C93B7
:1001200040832F5F3F4F61507109261737077CF3DB
:1001300008950F931F93CF93DF938B019A01C0E033
:10014000D0E00CC0F801EC0FFD1F6AE070E00E94E7
:100150007005805D8083862F972F2196009791F7F9
:1001600006C0F801EC0FFD1F80E380832196C217C3
:10017000D307BCF3BE01C8010E948200F801EC0F56
:10018000FD1F1082CE01DF91CF911F910F91089535
:100190004F925F926F927F928F929F92AF92BF9297
:1001A000EF92FF920F931F93CF93DF932B013C01AC
:1001B0007A0189010E9448024B015C01072E000C64
:1001C000880B990B0E9480029B01AC01C301B20114
:1001D0000E94DB012B013C0140E050E0B701C4016B
:1001E0000E949900EC010115110529F1F701E80FB2
:1001F000F91F8EE28083B801012E000C880B990B49
:100200000E9480029B01AC0160E070E080E291E41A
:100210000E9479039B01AC01C301B2010E940C034F
:100220002196CE0DDF1D0E944802DC01CB01A80102
:10023000BE010E949900DF91CF911F910F91FF9015
:10024000EF90BF90AF909F908F907F906F905F9056
:100250004F900895CF92DF92EF92FF926B017C0155
:10026000CA01B901689413F89695879577956795B3
:100270001694D1F7A70196010E948405BA01A9013D
:1002800041505109610971098BB11BB88AB188616C
:100290008AB980B5866880BD89B1842B89B980B55B
:1002A000852B80BDFF90EF90DF90CF9008955D9BF0
:1002B000FECF9CB1892B8CB90895EF92FF920F93DA
:1002C0001F93CF937C01C0E00AC00E945701F80140
:1002D00080818A3019F48DE00E945701CF5F870139
:1002E0000C0F111DF80180818111EFCFCF911F916B
:1002F0000F91FF90EF900895CF93DF93CDB7DEB7C6
:100300002A970FB6F894DEBF0FBECDBF40E050E095
:10031000BE016F5F7F4F0E949900CE0101960E943F
:100320005D012A960FB6F894DEBF0FBECDBFDF91F8
:10033000CF910895CF93DF93CDB7DEB72A970FB64D
:10034000F894DEBF0FBECDBF9A01AE014F5F5F4F85
:100350000E94C800CE0101960E945D012A960FB648
:10036000F894DEBF0FBECDBFDF91CF91089520E09E
:1003700032E14AE750E060E875E280E090E00E94F8
:100380002A0185E89AE10E947C0143E050E06BEC91
:1003900071E28AE092E40E949A0180E690E00E9475
:1003A0005D012FEF89E698E1215080409040E1F710
:1003B00000C00000E6CF5058BB27AA270E94F301D7
:1003C0000C94D2020E94C40238F00E94CB0220F0AA
:1003D00039F49F3F19F426F40C94C1020EF4E09511
:1003E000E7FB0C94BB02E92F0E94E30258F3BA1713
:1003F000620773078407950720F079F4A6F50C943B
:1004000005030EF4E0950B2EBA2FA02D0B01B901B8
:1004100090010C01CA01A0011124FF27591B99F07A
:10042000593F50F4503E68F11A16F040A22F232F86
:10043000342F4427585FF3CF469537952795A795D6
:10044000F0405395C9F77EF41F16BA0B620B730B7D
:10045000840BBAF09150A1F0FF0FBB1F661F771FEE
:10046000881FC2F70EC0BA0F621F731F841F48F4A3
:10047000879577956795B795F7959E3F08F0B0CF2C
:100480009395880F08F09927EE0F97958795089513
:100490000E944F026894B1110C94060308950E94C3
:1004A000EB0288F09F5798F0B92F9927B751B0F019
:1004B000E1F0660F771F881F991F1AF0BA95C9F7E8
:1004C00014C0B13091F00E940503B1E008950C947E
:1004D0000503672F782F8827B85F39F0B93FCCF331
:1004E000869577956795B395D9F73EF49095809565
:1004F000709561957F4F8F4F9F4F0895E89409C085
:1005000097FB3EF490958095709561957F4F8F4F46
:100510009F4F9923A9F0F92F96E9BB279395F6955C
:10052000879577956795B795F111F8CFFAF4BB0FDA
:1005300011F460FF1BC06F5F7F4F8F4F9F4F16C03E
:10054000882311F096E911C0772321F09EE8872FC8
:10055000762F05C0662371F096E8862F70E060E084
:100560002AF09A95660F771F881FDAF7880F9695FD
:10057000879597F9089597F99F6780E870E060E0A4
:1005800008959FEF80EC089500240A94161617062C
:1005900018060906089500240A9412161306140674
:1005A00005060895092E0394000C11F4882352F0D7
:1005B000BB0F40F4BF2B11F460FF04C06F5F7F4F8F
:1005C0008F4F9F4F089557FD9058440F551F59F076
:1005D0005F3F71F04795880F97FB991F61F09F3F30
:1005E00079F087950895121613061406551FF2CF59
:1005F0004695F1DF08C0161617061806991FF1CFA9
:1006000086957105610508940895E894BB276627CF
:100610007727CB0197F908950E941F030C94D2020B
:100620000E94C40238F00E94CB0220F0952311F002
:100630000C94BB020C94C10211240C9406030E947A
:10064000E30270F3959FC1F3950F50E0551F629F31
:10065000F001729FBB27F00DB11D639FAA27F00D1B
:10066000B11DAA1F649F6627B00DA11D661F829F42
:100670002227B00DA11D621F739FB00DA11D621F27
:10068000839FA00D611D221F749F3327A00D611D44
:10069000231F849F600D211D822F762F6A2F112426
:1006A0009F5750409AF0F1F088234AF0EE0FFF1F59
:1006B000BB1F661F771F881F91505040A9F79E3FB0
:1006C000510580F00C94BB020C9406035F3FE4F3E9
:1006D000983ED4F3869577956795B795F795E79506
:1006E0009F5FC1F7FE2B880F911D9695879597F90F
:1006F0000895FA01EE0FFF1F309621053105A1F193
:100700006115710561F48038BFE39B0749F1689476
:100710009038810561F08038BFEF9B0741F0992345
:100720004AF5FF3FE1053105210519F1E8940894E8
:10073000E795D901AA2329F4AB2FBE2FF85FD0F398
:1007400010C0FF5F70F4A695E0F7F73950F019F08C
:10075000FF3A38F49F779F930DD00F9007FC905885
:10076000089546F00C94C10260E070E080E89FE3D9
:1007700008954FE79F775F934F933F932F930E9486
:1007800074042F913F914F915F910E940C030C9440
:10079000D10329F416F00C94BB020C9405030C94BD
:1007A000C1020E94EB02A8F39638A0F707F80F9257
:1007B000E8942BE33AEA48EB5FE70E9422030F92AA
:1007C0000F920F924DB75EB70F920E94BC04E4E502
:1007D000F0E00E9403044F915F91EF91FF91E59546
:1007E000EE1FFF1F49F0FE57E0684427EE0F441F3D
:1007F000FA95E1F74195550B0E9436040F9007FEDC
:100800000C942A040895DF93CF931F930F93FF92C4
:10081000EF92DF927B018C01689406C0DA2EEF0123
:100820000E941F03FE01E894A59125913591459101
:100830005591A6F3EF010E94F301FE019701A80173
:10084000DA9469F7DF90EF90FF900F911F91CF91AD
:10085000DF9108959B01AC0160E070E080E89FE3C8
:100860000C94F0040C94BB020C9462050E94EB0201
:10087000D8F39923C9F3940F511DA3F3915050401D
:1008800094F059F0882332F0660F771F881F91503B
:100890005040C1F79E3F51052CF7880F911D96954A
:1008A000879597F908955F3FACF0983E9CF0BB2781
:1008B000869577956795B79508F4B1609395C1F7DC
:1008C000BB0F58F711F460FFE8CF6F5F7F4F8F4F7A
:1008D0009F4FE3CF0C94060316F00C9462050C9422
:1008E000C10268940C94BB020E94EB02A8F3992306
:1008F000C1F3AEF3DF93CF931F930F93FF92C92FF2
:10090000DD2788232AF02197660F771F881FDAF7E3
:1009100020E030E040E85FEB9FE3883920F0803E44
:1009200038F021968F770E94DC01ECE7F0E004C0FC
:100930000E94DC01E9EAF0E00E9403048B01BE01A1
:10094000EC01FB2E6F5771097595771F880B990B7A
:100950000E94800228E132E741E35FE30E941F0327
:10096000AF2D9801AE01FF900F911F91CF91DF91B4
:100970000E94F3010C94D202FA01DC01AA0FBB1F02
:100980009B01AC01BF5728F4222733274427507816
:1009900020C0B75190F4AB2F00244695379527958A
:1009A000011CA395D2F3002071F0220F331F441FC6
:1009B000B395DAF30ED00C94DB0161307105A0E839
:1009C0008A07B94630F49B01AC0166277727882750
:1009D0009078309621F020833183428353830895A9
:1009E0000E9404050C94D2020E94CB0258F00E948F
:1009F000C40240F029F45F3F29F00C94BB0251116E
:100A00000C9406030C94C1020E94E30268F399233C
:100A1000B1F3552391F3951B550BBB27AA276217FA
:100A20007307840738F09F5F5F4F220F331F441F07
:100A3000AA1FA9F335D00E2E3AF0E0E832D091503B
:100A40005040E695001CCAF72BD0FE2F29D0660F28
:100A5000771F881FBB1F261737074807AB07B0E86B
:100A600009F0BB0B802DBF01FF2793585F4F3AF071
:100A70009E3F510578F00C94BB020C9406035F3F37
:100A8000E4F3983ED4F3869577956795B795F795F7
:100A90009F5FC9F7880F911D9695879597F90895DF
:100AA000E1E0660F771F881FBB1F6217730784077B
:100AB000BA0720F0621B730B840BBA0BEE1F88F78A
:100AC000E09508959F3F31F0915020F487957795F8
:100AD0006795B795880F911D9695879597F9089515
:100AE00097FB072E16F4009407D077FD09D00E94DB
:100AF000A60507FC05D03EF4909581959F4F08957B
:100B0000709561957F4F0895A1E21A2EAA1BBB1B19
:100B1000FD010DC0AA1FBB1FEE1FFF1FA217B307C9
:100B2000E407F50720F0A21BB30BE40BF50B661FDF
:100B3000771F881F991F1A9469F7609570958095A3
:100B400090959B01AC01BD01CF010895AA1BBB1B71
:100B500051E107C0AA1FBB1FA617B70710F0A61BBD
:100B6000B70B881F991F5A95A9F780959095BC01DE
:080B7000CD010895F894FFCFB8
:060B7800616263640000ED
:00000001FF
