S00E000074696D6572312E73726563C4
S11300000C942A000C9434000C9434000C943400A6
S11300100C9434000C9434000C9446000C9434007A
S11300200C9434000C9434000C9434000C9434007C
S11300300C9434000C9434000C9434000C9434006C
S11300400C9434000C9434000C9434000C9434005C
S11300500C94340011241FBECFE5D8E0DEBFCDBF21
S11300600E9436000C9459000C9400008AB38FEF60
S11300708ABB9BB38BBB1FBC8BE18EBD84EF87BD5A
S113008083E286BD80E289BF7894FFCF1F920F92EE
S11300900FB60F9211248F9383E286BD84EF87BD40
S11300A08BB380958BBB8F910F900FBE0F901F90D9
S10900B01895F894FFCF3F
S9030000FC
